:0400000052EF01F0CA
:08000800046ED8CF05F0E0CF33
:1000100006F00001E9CF0CF0EACF07F0E1CF08F0DD
:10002000E2CF09F0D9CF0AF0DACF0BF0F3CF12F01C
:10003000F4CF13F0FACF14F000C00EF001C00FF0AF
:1000400002C010F003C011F09DAA2AEF00F09EBA82
:100050004BEF00F00EC000F00FC001F010C002F036
:1000600011C003F00CC0E9FF07C0EAFF078E08C00B
:10007000E1FF09C0E2FF0AC0D9FF0BC0DAFF12C0DE
:10008000F3FF13C0F4FF14C0FAFF045006C0E0FFF2
:1000900005C0D8FF10009D9AEA6A160EE96EE906BF
:1000A0009EAAFED7AECFECFF0D0EEF5CF9E1EC6A35
:1000B0009E9A2AEF00F0016A026A006A036A2150E0
:1000C00002E1205018E0100E226ED8901E361F3626
:1000D000003603362150035C02E12050005C07E348
:1000E0002050005ED8A003062150035ED880013660
:1000F0000236222EEAD790EF01F02050016A1F5CF1
:1001000003E21FC000F00CD0006A080E216E1F36FB
:1001100000362050005CD8B0006E0136212EF7D793
:1001200012001F50F60F5CE20A0FF1EF00F09590FD
:100130008C9095928C9295948C9495968C9650D0A8
:1001400095908C8095928C9295948C9495968C96A3
:1001500047D095908C9095928C8295948C9495969E
:100160008C963ED095908C8095928C8295948C94B0
:1001700095968C9635D095908C9095928C9295947E
:100180008C8495968C962CD095908C8095928C92A0
:1001900095948C8495968C9623D095908C9095927E
:1001A0008C8295948C8495968C961AD095908C80A0
:1001B00095928C8295948C8495968C9611D095907E
:1001C0008C9095928C9295948C9495968C8608D070
:1001D00095908C8095928C9295948C9495968C8623
:1001E0001200F2CF0DF0F29EE824F76AF736070FFF
:1001F000F66E020EF7220A00F550FA6E0800F5506E
:100200000DBEF28EF96E2E0140015201640176019D
:1002100088019A01AC01BE01D001EA6A1F0EE96EA5
:10022000EF500DE0060E016E006A002EFED7012E83
:10023000FBD77B0E006E002EFED7EF2EF3D71200F9
:100240001CC01FF00A0E206E58DF01C01DF01CC03C
:100250001FF00A0E206E51DF00C01EF095988C88AA
:10026000959A8C9A1DC01FF05CDF0A0E1F6ED5DFB9
:10027000959A8C8A95988C981EC01FF052DF0A0EB2
:100280001F6ECBDF0A0E1F6EC8DF1200959C8C8C90
:100290001200959E8C9E1200959C8C9C1200959E3F
:1002A0008C8E1200F86AD09E078E150EAF6EA60EC9
:1002B000AC6E900EAB6EC180C182C184C196070E38
:1002C000B46EC19CC29CC28EC18EC280C190C192CC
:1002D000C194C196000E016EC250C70B0110C26ED0
:1002E00096908D80190E1B6E000E016EC250C70BCA
:1002F0000110C26E100E006E002EFED70000C284E8
:10030000C2B4FED7C4CF03F0C3CF1CF0C4CF1DF0DE
:10031000C4CF1FF0C3CF1EF0216A0A0E206ECBD6C9
:1003200002C018F001C017F018C01AF017C019F079
:10033000185203E11750190819E2185217E1175023
:10034000440814E3010E175C196E000E18581A6E5B
:1003500019C01CF075DF1A5203E119501B5C03E24F
:1003600095DF97DF02D098DF9ADF26D0185203E19D
:100370001750450814E2020E175C196E000E18584B
:100380001A6E19C01CF05CDF1A5203E119501B5C95
:1003900003E27CDF7EDF02D07FDF81DF0DD019C07A
:1003A0001CF04EDF1A5203E119501B5C03E26EDFB2
:1003B00070DF02D071DF73DF0A0E1F6E2EDF94D75D
:0203C000030038
:020000040030CA
:0E00000000220E0E000081000FC00FE00F4026
:00000001FF
;PIC18F458
;CRC=0E2A  CREATED="14-mai-19 17:38"
